:100000000C9461000C9473000C9473000C947300B6
:100010000C9473000C9473000C9473000C94730094
:100020000C9473000C9473000C9473000C94730084
:100030000C9473000C9473000C9473000C94730074
:100040000C9463020C9473000C9473000C94730072
:100050000C9473000C9473000C9473000C94730054
:100060000C9473000C94730000000008000201005F
:100070000003040700000000000000000102040863
:100080001020408001020408102001020408102002
:10009000040404040404040402020202020203032E
:1000A00003030303000000002300260029000000D2
:1000B0000000250028002B0000000000240027007D
:1000C0002A0011241FBECFEFD8E0DEBFCDBF22E053
:1000D000A0E0B1E001C01D92A830B207E1F70E9494
:1000E00054020C94E4020C94000061E08CE00E9445
:1000F000F10160E08AE00E94F1018CB580648CBD62
:1001000084B1836084B987B18F6387B98FEF8AB96F
:100110001BB885B18C7F845085B988B1807C88B943
:10012000F89408952F923F924F925F926F927F9230
:100130008F929F92AF92BF92CF92DF92EF92FF92F7
:100140000F931F93CF93DF9300D01F92CDB7DEB7ED
:100150008AE029830E942A0229810197C9F30DB4FC
:1001600007FEFDCF80E09EB5E82FF0E0E050FF4FA6
:1001700090838F5F813051F490910001292F21707D
:10018000D22E90FD03C1D12C29E002C0821720F4A9
:100190000DB407FEFDCFE7CF8AE00E942A02892B2B
:1001A000D9F385E09DB59EB58150E1F731E0D312DA
:1001B00002C050E101C052E0A09000016A2D6E7FA4
:1001C000A62E85B18C7F85B988B1807C8F5F88B978
:1001D000C12CB12CEB2DF0E08C2D90E0503109F0CA
:1001E00045C0EE0FFF1FEE0FFF1FEF5FFE4F608158
:1001F000262F2F7030E041E0821793070CF040E08B
:100200002C2D2295207F30E0607F70E02617370785
:100210000CF442606181A62FAF70B0E08A179B0793
:100220000CF44460607F70E0261737070CF44860D8
:100230006281A62FAF70B0E08A179B070CF4406173
:10024000607F70E0261737070CF44062E3816E2F61
:100250006F7070E0861797070CF44064E07F8E2F74
:1002600090E0281739070CF048C046C0EF5FFE4FFA
:10027000208120FB882480F8912C41E08815990585
:100280000CF040E021FB222420F8312C821593054C
:100290000CF4426022FB442440F8512C841595054F
:1002A0000CF4446023FB662460F8712C86159705D6
:1002B0000CF4486024FB772770F97A831B826A81EB
:1002C0007B81861797070CF4406125FB002700F916
:1002D00010E0801791070CF4406226FBEE24E0F852
:1002E000F12C8E159F050CF44064221F2227221F3B
:1002F00030E0821793070CF440684BB9C394C516DD
:1003000020F1B3941BB878E0B716B9F065B181E07D
:1003100090E00B2C02C0880F991F0A94E2F79C0111
:1003200096E0359527959A95E1F76C7F620F65B950
:1003300098B18F73907C890F06C085B18C7F8450F3
:1003400085B988B1807C88B9C12CAA2029F080E0C9
:1003500000008F5F8A11FCCF87E08B1508F03ACF41
:100360000F900F900F90DF91CF911F910F91FF9001
:10037000EF90DF90CF90BF90AF909F908F907F9045
:100380006F905F904F903F902F90089521E200CFA3
:10039000833081F028F4813099F08230A1F0089503
:1003A0008730A9F08830B9F08430D1F48091800092
:1003B0008F7D03C0809180008F77809380000895A7
:1003C00084B58F7702C084B58F7D84BD08958091F8
:1003D000B0008F7703C08091B0008F7D8093B00014
:1003E0000895CF93DF9390E0FC01E458FF4F2491F0
:1003F000FC01E057FF4F8491882349F190E0880F7A
:10040000991FFC01E854FF4FA591B49182559F4F6D
:10041000FC01C591D4919FB7611108C0F8948C91EB
:10042000209582238C93888182230AC0623051F404
:10043000F8948C91322F309583238C938881822B72
:10044000888304C0F8948C91822B8C939FBFDF919A
:10045000CF910895CF93DF93282F30E0F901E85929
:10046000FF4F8491F901E458FF4FD491F901E0570F
:10047000FF4FC491CC2391F081110E94C801EC2F51
:10048000F0E0EE0FFF1FEC55FF4FA591B4912C91BA
:100490002D2381E090E021F480E002C080E090E034
:1004A000DF91CF91089508950E94A9020E945302FE
:1004B0000E947500C0E0D0E00E9492002097E1F316
:1004C0000E940000F9CF1F920F920FB60F921124D5
:1004D0002F933F938F939F93AF93BF93809100028D
:1004E00090910102A0910202B09103023091FF01AC
:1004F00026E6230F2D3728F029EE230F0196A11DA4
:10050000B11D2093FF018093000290930102A093FC
:100510000202B09303028091040290910502A0911F
:100520000602B09107020196A11DB11D809304023D
:1005300090930502A0930602B0930702BF91AF917A
:100540009F918F913F912F910F900FBE0F901F9011
:100550001895789484B5826084BD84B5816084BD2B
:1005600085B5826085BD85B5816085BDEEE6F0E02C
:10057000808181608083E1E8F0E010828081826088
:100580008083808181608083E0E8F0E08081816009
:100590008083E1EBF0E0808184608083E0EBF0E039
:1005A000808181608083EAE7F0E0808184608083DD
:1005B0008081826080838081816080838081806887
:0C05C00080831092C1000895F894FFCFD2
:00000001FF
